{
  "_format": "hh-sol-artifact-1",
  "contractName": "GardenProxy",
  "sourceName": "contracts/Garden/GardenProxy.sol",
  "abi": [
    {
      "inputs": [
        {
          "internalType": "address",
          "name": "_implementation",
          "type": "address"
        }
      ],
      "stateMutability": "nonpayable",
      "type": "constructor"
    },
    {
      "anonymous": false,
      "inputs": [
        {
          "indexed": true,
          "internalType": "address",
          "name": "previousAdmin",
          "type": "address"
        },
        {
          "indexed": true,
          "internalType": "address",
          "name": "newAdmin",
          "type": "address"
        }
      ],
      "name": "AdminTransferred",
      "type": "event"
    },
    {
      "anonymous": false,
      "inputs": [
        {
          "indexed": true,
          "internalType": "address",
          "name": "oldImpl",
          "type": "address"
        },
        {
          "indexed": true,
          "internalType": "address",
          "name": "newImpl",
          "type": "address"
        }
      ],
      "name": "Upgraded",
      "type": "event"
    },
    {
      "stateMutability": "payable",
      "type": "fallback"
    },
    {
      "inputs": [
        {
          "internalType": "address",
          "name": "newAdmin",
          "type": "address"
        }
      ],
      "name": "adminTransfer",
      "outputs": [],
      "stateMutability": "nonpayable",
      "type": "function"
    },
    {
      "inputs": [],
      "name": "getAdmin",
      "outputs": [
        {
          "internalType": "address",
          "name": "",
          "type": "address"
        }
      ],
      "stateMutability": "view",
      "type": "function"
    },
    {
      "inputs": [],
      "name": "getAdminSlot",
      "outputs": [
        {
          "internalType": "bytes32",
          "name": "",
          "type": "bytes32"
        }
      ],
      "stateMutability": "view",
      "type": "function"
    },
    {
      "inputs": [],
      "name": "getImplementation",
      "outputs": [
        {
          "internalType": "address",
          "name": "",
          "type": "address"
        }
      ],
      "stateMutability": "view",
      "type": "function"
    },
    {
      "inputs": [],
      "name": "getImplementationSlot",
      "outputs": [
        {
          "internalType": "bytes32",
          "name": "",
          "type": "bytes32"
        }
      ],
      "stateMutability": "view",
      "type": "function"
    },
    {
      "inputs": [
        {
          "internalType": "address",
          "name": "newAddress",
          "type": "address"
        }
      ],
      "name": "upgrade",
      "outputs": [],
      "stateMutability": "nonpayable",
      "type": "function"
    },
    {
      "stateMutability": "payable",
      "type": "receive"
    }
  ],
  "bytecode": "0x608060405234801561001057600080fd5b50604051610f52380380610f528339818101604052810190610032919061028d565b80610042816101fd60201b60201c565b610081576040517f08c379a00000000000000000000000000000000000000000000000000000000081526004016100789061033d565b60405180910390fd5b600073ffffffffffffffffffffffffffffffffffffffff168173ffffffffffffffffffffffffffffffffffffffff16036100f0576040517f08c379a00000000000000000000000000000000000000000000000000000000081526004016100e7906103cf565b60405180910390fd5b8161013260017fafe5c93bc3806f697de5a3e1938d776e26791adca416f7de5d26c6942daa65f660001c6101249190610428565b60001b61022060201b60201c565b60000160006101000a81548173ffffffffffffffffffffffffffffffffffffffff021916908373ffffffffffffffffffffffffffffffffffffffff160217905550336101b560017f52e63f25879fa6321dd109b52ba158af8d6c19562106853d85b7600bea7a5d5860001c6101a79190610428565b60001b61022060201b60201c565b60000160006101000a81548173ffffffffffffffffffffffffffffffffffffffff021916908373ffffffffffffffffffffffffffffffffffffffff160217905550505061045c565b6000808273ffffffffffffffffffffffffffffffffffffffff163b119050919050565b6000819050919050565b600080fd5b600073ffffffffffffffffffffffffffffffffffffffff82169050919050565b600061025a8261022f565b9050919050565b61026a8161024f565b811461027557600080fd5b50565b60008151905061028781610261565b92915050565b6000602082840312156102a3576102a261022a565b5b60006102b184828501610278565b91505092915050565b600082825260208201905092915050565b7f5f6e6577496d706c656d656e746174696f6e206973206e6f74206120636f6e7460008201527f7261637420616464726573730000000000000000000000000000000000000000602082015250565b6000610327602c836102ba565b9150610332826102cb565b604082019050919050565b600060208201905081810360008301526103568161031a565b9050919050565b7f5f6e6577496d706c656d656e746174696f6e2063616e27742062652061207a6560008201527f726f206164647265737300000000000000000000000000000000000000000000602082015250565b60006103b9602a836102ba565b91506103c48261035d565b604082019050919050565b600060208201905081810360008301526103e8816103ac565b9050919050565b6000819050919050565b7f4e487b7100000000000000000000000000000000000000000000000000000000600052601160045260246000fd5b6000610433826103ef565b915061043e836103ef565b9250828203905081811115610456576104556103f9565b5b92915050565b610ae78061046b6000396000f3fe6080604052600436106100595760003560e01c80630900f010146100c95780636e9960c3146100f25780637a34c8211461011d5780639234c1e1146101485780639ad5c59a14610171578063aaf10f421461019c57610060565b3661006057005b6100c761009e60017fafe5c93bc3806f697de5a3e1938d776e26791adca416f7de5d26c6942daa65f660001c61009691906107ee565b60001b6101c7565b60000160009054906101000a900473ffffffffffffffffffffffffffffffffffffffff166101d1565b005b3480156100d557600080fd5b506100f060048036038101906100eb9190610885565b6101f7565b005b3480156100fe57600080fd5b5061010761040c565b60405161011491906108c1565b60405180910390f35b34801561012957600080fd5b50610132610472565b60405161013f91906108f5565b60405180910390f35b34801561015457600080fd5b5061016f600480360381019061016a9190610885565b610521565b005b34801561017d57600080fd5b5061018661067d565b60405161019391906108f5565b60405180910390f35b3480156101a857600080fd5b506101b161072c565b6040516101be91906108c1565b60405180910390f35b6000819050919050565b3660008037600080366000845af43d6000803e80600081146101f2573d6000f35b3d6000fd5b3373ffffffffffffffffffffffffffffffffffffffff1661021661040c565b73ffffffffffffffffffffffffffffffffffffffff161461026c576040517f08c379a00000000000000000000000000000000000000000000000000000000081526004016102639061096d565b60405180910390fd5b8061027681610792565b6102b5576040517f08c379a00000000000000000000000000000000000000000000000000000000081526004016102ac906109ff565b60405180910390fd5b600073ffffffffffffffffffffffffffffffffffffffff168173ffffffffffffffffffffffffffffffffffffffff1603610324576040517f08c379a000000000000000000000000000000000000000000000000000000000815260040161031b90610a91565b60405180910390fd5b600061032e61072c565b90508261036c60017fafe5c93bc3806f697de5a3e1938d776e26791adca416f7de5d26c6942daa65f660001c61036491906107ee565b60001b6101c7565b60000160006101000a81548173ffffffffffffffffffffffffffffffffffffffff021916908373ffffffffffffffffffffffffffffffffffffffff1602179055508273ffffffffffffffffffffffffffffffffffffffff168173ffffffffffffffffffffffffffffffffffffffff167f5d611f318680d00598bb735d61bacf0c514c6b50e1e5ad30040a4df2b12791c760405160405180910390a3505050565b600061044960017f52e63f25879fa6321dd109b52ba158af8d6c19562106853d85b7600bea7a5d5860001c61044191906107ee565b60001b6101c7565b60000160009054906101000a900473ffffffffffffffffffffffffffffffffffffffff16905090565b60003373ffffffffffffffffffffffffffffffffffffffff1661049361040c565b73ffffffffffffffffffffffffffffffffffffffff16146104e9576040517f08c379a00000000000000000000000000000000000000000000000000000000081526004016104e09061096d565b60405180910390fd5b60017fafe5c93bc3806f697de5a3e1938d776e26791adca416f7de5d26c6942daa65f660001c61051991906107ee565b60001b905090565b3373ffffffffffffffffffffffffffffffffffffffff1661054061040c565b73ffffffffffffffffffffffffffffffffffffffff1614610596576040517f08c379a000000000000000000000000000000000000000000000000000000000815260040161058d9061096d565b60405180910390fd5b60006105a061040c565b9050816105de60017f52e63f25879fa6321dd109b52ba158af8d6c19562106853d85b7600bea7a5d5860001c6105d691906107ee565b60001b6101c7565b60000160006101000a81548173ffffffffffffffffffffffffffffffffffffffff021916908373ffffffffffffffffffffffffffffffffffffffff1602179055508173ffffffffffffffffffffffffffffffffffffffff168173ffffffffffffffffffffffffffffffffffffffff167ff8ccb027dfcd135e000e9d45e6cc2d662578a8825d4c45b5e32e0adf67e79ec660405160405180910390a35050565b60003373ffffffffffffffffffffffffffffffffffffffff1661069e61040c565b73ffffffffffffffffffffffffffffffffffffffff16146106f4576040517f08c379a00000000000000000000000000000000000000000000000000000000081526004016106eb9061096d565b60405180910390fd5b60017f52e63f25879fa6321dd109b52ba158af8d6c19562106853d85b7600bea7a5d5860001c61072491906107ee565b60001b905090565b600061076960017fafe5c93bc3806f697de5a3e1938d776e26791adca416f7de5d26c6942daa65f660001c61076191906107ee565b60001b6101c7565b60000160009054906101000a900473ffffffffffffffffffffffffffffffffffffffff16905090565b6000808273ffffffffffffffffffffffffffffffffffffffff163b119050919050565b6000819050919050565b7f4e487b7100000000000000000000000000000000000000000000000000000000600052601160045260246000fd5b60006107f9826107b5565b9150610804836107b5565b925082820390508181111561081c5761081b6107bf565b5b92915050565b600080fd5b600073ffffffffffffffffffffffffffffffffffffffff82169050919050565b600061085282610827565b9050919050565b61086281610847565b811461086d57600080fd5b50565b60008135905061087f81610859565b92915050565b60006020828403121561089b5761089a610822565b5b60006108a984828501610870565b91505092915050565b6108bb81610847565b82525050565b60006020820190506108d660008301846108b2565b92915050565b6000819050919050565b6108ef816108dc565b82525050565b600060208201905061090a60008301846108e6565b92915050565b600082825260208201905092915050565b7f43616c6c6572206973206e6f74207468652061646d696e000000000000000000600082015250565b6000610957601783610910565b915061096282610921565b602082019050919050565b600060208201905081810360008301526109868161094a565b9050919050565b7f5f6e6577496d706c656d656e746174696f6e206973206e6f74206120636f6e7460008201527f7261637420616464726573730000000000000000000000000000000000000000602082015250565b60006109e9602c83610910565b91506109f48261098d565b604082019050919050565b60006020820190508181036000830152610a18816109dc565b9050919050565b7f5f6e6577496d706c656d656e746174696f6e2063616e27742062652061207a6560008201527f726f206164647265737300000000000000000000000000000000000000000000602082015250565b6000610a7b602a83610910565b9150610a8682610a1f565b604082019050919050565b60006020820190508181036000830152610aaa81610a6e565b905091905056fea2646970667358221220bdfc2bfc3720c821cae9b06f935b9abaf027a235f42702dae311c7f0574ac07564736f6c634300081b0033",
  "linkReferences": {},
  "deployedLinkReferences": {}
}