{"contracts/Garden/GardenProxy.sol":{"GardenProxy":{"abi":[{"inputs":[{"internalType":"address","name":"_implementation","type":"address"}],"stateMutability":"nonpayable","type":"constructor"},{"anonymous":false,"inputs":[{"indexed":true,"internalType":"address","name":"previousAdmin","type":"address"},{"indexed":true,"internalType":"address","name":"newAdmin","type":"address"}],"name":"AdminTransferred","type":"event"},{"anonymous":false,"inputs":[{"indexed":true,"internalType":"address","name":"oldImpl","type":"address"},{"indexed":true,"internalType":"address","name":"newImpl","type":"address"}],"name":"Upgraded","type":"event"},{"stateMutability":"payable","type":"fallback"},{"inputs":[{"internalType":"address","name":"newAdmin","type":"address"}],"name":"adminTransfer","outputs":[],"stateMutability":"nonpayable","type":"function"},{"inputs":[],"name":"getAdmin","outputs":[{"internalType":"address","name":"","type":"address"}],"stateMutability":"view","type":"function"},{"inputs":[],"name":"getAdminSlot","outputs":[{"internalType":"bytes32","name":"","type":"bytes32"}],"stateMutability":"view","type":"function"},{"inputs":[],"name":"getImplementation","outputs":[{"internalType":"address","name":"","type":"address"}],"stateMutability":"view","type":"function"},{"inputs":[],"name":"getImplementationSlot","outputs":[{"internalType":"bytes32","name":"","type":"bytes32"}],"stateMutability":"view","type":"function"},{"inputs":[{"internalType":"address","name":"newAddress","type":"address"}],"name":"upgrade","outputs":[],"stateMutability":"nonpayable","type":"function"},{"stateMutability":"payable","type":"receive"}],"evm":{"bytecode":{"linkReferences":{},"object":"608060405234801561001057600080fd5b50604051610f52380380610f528339818101604052810190610032919061028d565b80610042816101fd60201b60201c565b610081576040517f08c379a00000000000000000000000000000000000000000000000000000000081526004016100789061033d565b60405180910390fd5b600073ffffffffffffffffffffffffffffffffffffffff168173ffffffffffffffffffffffffffffffffffffffff16036100f0576040517f08c379a00000000000000000000000000000000000000000000000000000000081526004016100e7906103cf565b60405180910390fd5b8161013260017fafe5c93bc3806f697de5a3e1938d776e26791adca416f7de5d26c6942daa65f660001c6101249190610428565b60001b61022060201b60201c565b60000160006101000a81548173ffffffffffffffffffffffffffffffffffffffff021916908373ffffffffffffffffffffffffffffffffffffffff160217905550336101b560017f52e63f25879fa6321dd109b52ba158af8d6c19562106853d85b7600bea7a5d5860001c6101a79190610428565b60001b61022060201b60201c565b60000160006101000a81548173ffffffffffffffffffffffffffffffffffffffff021916908373ffffffffffffffffffffffffffffffffffffffff160217905550505061045c565b6000808273ffffffffffffffffffffffffffffffffffffffff163b119050919050565b6000819050919050565b600080fd5b600073ffffffffffffffffffffffffffffffffffffffff82169050919050565b600061025a8261022f565b9050919050565b61026a8161024f565b811461027557600080fd5b50565b60008151905061028781610261565b92915050565b6000602082840312156102a3576102a261022a565b5b60006102b184828501610278565b91505092915050565b600082825260208201905092915050565b7f5f6e6577496d706c656d656e746174696f6e206973206e6f74206120636f6e7460008201527f7261637420616464726573730000000000000000000000000000000000000000602082015250565b6000610327602c836102ba565b9150610332826102cb565b604082019050919050565b600060208201905081810360008301526103568161031a565b9050919050565b7f5f6e6577496d706c656d656e746174696f6e2063616e27742062652061207a6560008201527f726f206164647265737300000000000000000000000000000000000000000000602082015250565b60006103b9602a836102ba565b91506103c48261035d565b604082019050919050565b600060208201905081810360008301526103e8816103ac565b9050919050565b6000819050919050565b7f4e487b7100000000000000000000000000000000000000000000000000000000600052601160045260246000fd5b6000610433826103ef565b915061043e836103ef565b9250828203905081811115610456576104556103f9565b5b92915050565b610ae78061046b6000396000f3fe6080604052600436106100595760003560e01c80630900f010146100c95780636e9960c3146100f25780637a34c8211461011d5780639234c1e1146101485780639ad5c59a14610171578063aaf10f421461019c57610060565b3661006057005b6100c761009e60017fafe5c93bc3806f697de5a3e1938d776e26791adca416f7de5d26c6942daa65f660001c61009691906107ee565b60001b6101c7565b60000160009054906101000a900473ffffffffffffffffffffffffffffffffffffffff166101d1565b005b3480156100d557600080fd5b506100f060048036038101906100eb9190610885565b6101f7565b005b3480156100fe57600080fd5b5061010761040c565b60405161011491906108c1565b60405180910390f35b34801561012957600080fd5b50610132610472565b60405161013f91906108f5565b60405180910390f35b34801561015457600080fd5b5061016f600480360381019061016a9190610885565b610521565b005b34801561017d57600080fd5b5061018661067d565b60405161019391906108f5565b60405180910390f35b3480156101a857600080fd5b506101b161072c565b6040516101be91906108c1565b60405180910390f35b6000819050919050565b3660008037600080366000845af43d6000803e80600081146101f2573d6000f35b3d6000fd5b3373ffffffffffffffffffffffffffffffffffffffff1661021661040c565b73ffffffffffffffffffffffffffffffffffffffff161461026c576040517f08c379a00000000000000000000000000000000000000000000000000000000081526004016102639061096d565b60405180910390fd5b8061027681610792565b6102b5576040517f08c379a00000000000000000000000000000000000000000000000000000000081526004016102ac906109ff565b60405180910390fd5b600073ffffffffffffffffffffffffffffffffffffffff168173ffffffffffffffffffffffffffffffffffffffff1603610324576040517f08c379a000000000000000000000000000000000000000000000000000000000815260040161031b90610a91565b60405180910390fd5b600061032e61072c565b90508261036c60017fafe5c93bc3806f697de5a3e1938d776e26791adca416f7de5d26c6942daa65f660001c61036491906107ee565b60001b6101c7565b60000160006101000a81548173ffffffffffffffffffffffffffffffffffffffff021916908373ffffffffffffffffffffffffffffffffffffffff1602179055508273ffffffffffffffffffffffffffffffffffffffff168173ffffffffffffffffffffffffffffffffffffffff167f5d611f318680d00598bb735d61bacf0c514c6b50e1e5ad30040a4df2b12791c760405160405180910390a3505050565b600061044960017f52e63f25879fa6321dd109b52ba158af8d6c19562106853d85b7600bea7a5d5860001c61044191906107ee565b60001b6101c7565b60000160009054906101000a900473ffffffffffffffffffffffffffffffffffffffff16905090565b60003373ffffffffffffffffffffffffffffffffffffffff1661049361040c565b73ffffffffffffffffffffffffffffffffffffffff16146104e9576040517f08c379a00000000000000000000000000000000000000000000000000000000081526004016104e09061096d565b60405180910390fd5b60017fafe5c93bc3806f697de5a3e1938d776e26791adca416f7de5d26c6942daa65f660001c61051991906107ee565b60001b905090565b3373ffffffffffffffffffffffffffffffffffffffff1661054061040c565b73ffffffffffffffffffffffffffffffffffffffff1614610596576040517f08c379a000000000000000000000000000000000000000000000000000000000815260040161058d9061096d565b60405180910390fd5b60006105a061040c565b9050816105de60017f52e63f25879fa6321dd109b52ba158af8d6c19562106853d85b7600bea7a5d5860001c6105d691906107ee565b60001b6101c7565b60000160006101000a81548173ffffffffffffffffffffffffffffffffffffffff021916908373ffffffffffffffffffffffffffffffffffffffff1602179055508173ffffffffffffffffffffffffffffffffffffffff168173ffffffffffffffffffffffffffffffffffffffff167ff8ccb027dfcd135e000e9d45e6cc2d662578a8825d4c45b5e32e0adf67e79ec660405160405180910390a35050565b60003373ffffffffffffffffffffffffffffffffffffffff1661069e61040c565b73ffffffffffffffffffffffffffffffffffffffff16146106f4576040517f08c379a00000000000000000000000000000000000000000000000000000000081526004016106eb9061096d565b60405180910390fd5b60017f52e63f25879fa6321dd109b52ba158af8d6c19562106853d85b7600bea7a5d5860001c61072491906107ee565b60001b905090565b600061076960017fafe5c93bc3806f697de5a3e1938d776e26791adca416f7de5d26c6942daa65f660001c61076191906107ee565b60001b6101c7565b60000160009054906101000a900473ffffffffffffffffffffffffffffffffffffffff16905090565b6000808273ffffffffffffffffffffffffffffffffffffffff163b119050919050565b6000819050919050565b7f4e487b7100000000000000000000000000000000000000000000000000000000600052601160045260246000fd5b60006107f9826107b5565b9150610804836107b5565b925082820390508181111561081c5761081b6107bf565b5b92915050565b600080fd5b600073ffffffffffffffffffffffffffffffffffffffff82169050919050565b600061085282610827565b9050919050565b61086281610847565b811461086d57600080fd5b50565b60008135905061087f81610859565b92915050565b60006020828403121561089b5761089a610822565b5b60006108a984828501610870565b91505092915050565b6108bb81610847565b82525050565b60006020820190506108d660008301846108b2565b92915050565b6000819050919050565b6108ef816108dc565b82525050565b600060208201905061090a60008301846108e6565b92915050565b600082825260208201905092915050565b7f43616c6c6572206973206e6f74207468652061646d696e000000000000000000600082015250565b6000610957601783610910565b915061096282610921565b602082019050919050565b600060208201905081810360008301526109868161094a565b9050919050565b7f5f6e6577496d706c656d656e746174696f6e206973206e6f74206120636f6e7460008201527f7261637420616464726573730000000000000000000000000000000000000000602082015250565b60006109e9602c83610910565b91506109f48261098d565b604082019050919050565b60006020820190508181036000830152610a18816109dc565b9050919050565b7f5f6e6577496d706c656d656e746174696f6e2063616e27742062652061207a6560008201527f726f206164647265737300000000000000000000000000000000000000000000602082015250565b6000610a7b602a83610910565b9150610a8682610a1f565b604082019050919050565b60006020820190508181036000830152610aaa81610a6e565b905091905056fea2646970667358221220bdfc2bfc3720c821cae9b06f935b9abaf027a235f42702dae311c7f0574ac07564736f6c634300081b0033","opcodes":"PUSH1 0x80 PUSH1 0x40 MSTORE CALLVALUE DUP1 ISZERO PUSH2 0x10 JUMPI PUSH1 0x0 DUP1 REVERT JUMPDEST POP PUSH1 0x40 MLOAD PUSH2 0xF52 CODESIZE SUB DUP1 PUSH2 0xF52 DUP4 CODECOPY DUP2 DUP2 ADD PUSH1 0x40 MSTORE DUP2 ADD SWAP1 PUSH2 0x32 SWAP2 SWAP1 PUSH2 0x28D JUMP JUMPDEST DUP1 PUSH2 0x42 DUP2 PUSH2 0x1FD PUSH1 0x20 SHL PUSH1 0x20 SHR JUMP JUMPDEST PUSH2 0x81 JUMPI PUSH1 0x40 MLOAD PUSH32 0x8C379A000000000000000000000000000000000000000000000000000000000 DUP2 MSTORE PUSH1 0x4 ADD PUSH2 0x78 SWAP1 PUSH2 0x33D JUMP JUMPDEST PUSH1 0x40 MLOAD DUP1 SWAP2 SUB SWAP1 REVERT JUMPDEST PUSH1 0x0 PUSH20 0xFFFFFFFFFFFFFFFFFFFFFFFFFFFFFFFFFFFFFFFF AND DUP2 PUSH20 0xFFFFFFFFFFFFFFFFFFFFFFFFFFFFFFFFFFFFFFFF AND SUB PUSH2 0xF0 JUMPI PUSH1 0x40 MLOAD PUSH32 0x8C379A000000000000000000000000000000000000000000000000000000000 DUP2 MSTORE PUSH1 0x4 ADD PUSH2 0xE7 SWAP1 PUSH2 0x3CF JUMP JUMPDEST PUSH1 0x40 MLOAD DUP1 SWAP2 SUB SWAP1 REVERT JUMPDEST DUP2 PUSH2 0x132 PUSH1 0x1 PUSH32 0xAFE5C93BC3806F697DE5A3E1938D776E26791ADCA416F7DE5D26C6942DAA65F6 PUSH1 0x0 SHR PUSH2 0x124 SWAP2 SWAP1 PUSH2 0x428 JUMP JUMPDEST PUSH1 0x0 SHL PUSH2 0x220 PUSH1 0x20 SHL PUSH1 0x20 SHR JUMP JUMPDEST PUSH1 0x0 ADD PUSH1 0x0 PUSH2 0x100 EXP DUP2 SLOAD DUP2 PUSH20 0xFFFFFFFFFFFFFFFFFFFFFFFFFFFFFFFFFFFFFFFF MUL NOT AND SWAP1 DUP4 PUSH20 0xFFFFFFFFFFFFFFFFFFFFFFFFFFFFFFFFFFFFFFFF AND MUL OR SWAP1 SSTORE POP CALLER PUSH2 0x1B5 PUSH1 0x1 PUSH32 0x52E63F25879FA6321DD109B52BA158AF8D6C19562106853D85B7600BEA7A5D58 PUSH1 0x0 SHR PUSH2 0x1A7 SWAP2 SWAP1 PUSH2 0x428 JUMP JUMPDEST PUSH1 0x0 SHL PUSH2 0x220 PUSH1 0x20 SHL PUSH1 0x20 SHR JUMP JUMPDEST PUSH1 0x0 ADD PUSH1 0x0 PUSH2 0x100 EXP DUP2 SLOAD DUP2 PUSH20 0xFFFFFFFFFFFFFFFFFFFFFFFFFFFFFFFFFFFFFFFF MUL NOT AND SWAP1 DUP4 PUSH20 0xFFFFFFFFFFFFFFFFFFFFFFFFFFFFFFFFFFFFFFFF AND MUL OR SWAP1 SSTORE POP POP POP PUSH2 0x45C JUMP JUMPDEST PUSH1 0x0 DUP1 DUP3 PUSH20 0xFFFFFFFFFFFFFFFFFFFFFFFFFFFFFFFFFFFFFFFF AND EXTCODESIZE GT SWAP1 POP SWAP2 SWAP1 POP JUMP JUMPDEST PUSH1 0x0 DUP2 SWAP1 POP SWAP2 SWAP1 POP JUMP JUMPDEST PUSH1 0x0 DUP1 REVERT JUMPDEST PUSH1 0x0 PUSH20 0xFFFFFFFFFFFFFFFFFFFFFFFFFFFFFFFFFFFFFFFF DUP3 AND SWAP1 POP SWAP2 SWAP1 POP JUMP JUMPDEST PUSH1 0x0 PUSH2 0x25A DUP3 PUSH2 0x22F JUMP JUMPDEST SWAP1 POP SWAP2 SWAP1 POP JUMP JUMPDEST PUSH2 0x26A DUP2 PUSH2 0x24F JUMP JUMPDEST DUP2 EQ PUSH2 0x275 JUMPI PUSH1 0x0 DUP1 REVERT JUMPDEST POP JUMP JUMPDEST PUSH1 0x0 DUP2 MLOAD SWAP1 POP PUSH2 0x287 DUP2 PUSH2 0x261 JUMP JUMPDEST SWAP3 SWAP2 POP POP JUMP JUMPDEST PUSH1 0x0 PUSH1 0x20 DUP3 DUP5 SUB SLT ISZERO PUSH2 0x2A3 JUMPI PUSH2 0x2A2 PUSH2 0x22A JUMP JUMPDEST JUMPDEST PUSH1 0x0 PUSH2 0x2B1 DUP5 DUP3 DUP6 ADD PUSH2 0x278 JUMP JUMPDEST SWAP2 POP POP SWAP3 SWAP2 POP POP JUMP JUMPDEST PUSH1 0x0 DUP3 DUP3 MSTORE PUSH1 0x20 DUP3 ADD SWAP1 POP SWAP3 SWAP2 POP POP JUMP JUMPDEST PUSH32 0x5F6E6577496D706C656D656E746174696F6E206973206E6F74206120636F6E74 PUSH1 0x0 DUP3 ADD MSTORE PUSH32 0x7261637420616464726573730000000000000000000000000000000000000000 PUSH1 0x20 DUP3 ADD MSTORE POP JUMP JUMPDEST PUSH1 0x0 PUSH2 0x327 PUSH1 0x2C DUP4 PUSH2 0x2BA JUMP JUMPDEST SWAP2 POP PUSH2 0x332 DUP3 PUSH2 0x2CB JUMP JUMPDEST PUSH1 0x40 DUP3 ADD SWAP1 POP SWAP2 SWAP1 POP JUMP JUMPDEST PUSH1 0x0 PUSH1 0x20 DUP3 ADD SWAP1 POP DUP2 DUP2 SUB PUSH1 0x0 DUP4 ADD MSTORE PUSH2 0x356 DUP2 PUSH2 0x31A JUMP JUMPDEST SWAP1 POP SWAP2 SWAP1 POP JUMP JUMPDEST PUSH32 0x5F6E6577496D706C656D656E746174696F6E2063616E27742062652061207A65 PUSH1 0x0 DUP3 ADD MSTORE PUSH32 0x726F206164647265737300000000000000000000000000000000000000000000 PUSH1 0x20 DUP3 ADD MSTORE POP JUMP JUMPDEST PUSH1 0x0 PUSH2 0x3B9 PUSH1 0x2A DUP4 PUSH2 0x2BA JUMP JUMPDEST SWAP2 POP PUSH2 0x3C4 DUP3 PUSH2 0x35D JUMP JUMPDEST PUSH1 0x40 DUP3 ADD SWAP1 POP SWAP2 SWAP1 POP JUMP JUMPDEST PUSH1 0x0 PUSH1 0x20 DUP3 ADD SWAP1 POP DUP2 DUP2 SUB PUSH1 0x0 DUP4 ADD MSTORE PUSH2 0x3E8 DUP2 PUSH2 0x3AC JUMP JUMPDEST SWAP1 POP SWAP2 SWAP1 POP JUMP JUMPDEST PUSH1 0x0 DUP2 SWAP1 POP SWAP2 SWAP1 POP JUMP JUMPDEST PUSH32 0x4E487B7100000000000000000000000000000000000000000000000000000000 PUSH1 0x0 MSTORE PUSH1 0x11 PUSH1 0x4 MSTORE PUSH1 0x24 PUSH1 0x0 REVERT JUMPDEST PUSH1 0x0 PUSH2 0x433 DUP3 PUSH2 0x3EF JUMP JUMPDEST SWAP2 POP PUSH2 0x43E DUP4 PUSH2 0x3EF JUMP JUMPDEST SWAP3 POP DUP3 DUP3 SUB SWAP1 POP DUP2 DUP2 GT ISZERO PUSH2 0x456 JUMPI PUSH2 0x455 PUSH2 0x3F9 JUMP JUMPDEST JUMPDEST SWAP3 SWAP2 POP POP JUMP JUMPDEST PUSH2 0xAE7 DUP1 PUSH2 0x46B PUSH1 0x0 CODECOPY PUSH1 0x0 RETURN INVALID PUSH1 0x80 PUSH1 0x40 MSTORE PUSH1 0x4 CALLDATASIZE LT PUSH2 0x59 JUMPI PUSH1 0x0 CALLDATALOAD PUSH1 0xE0 SHR DUP1 PUSH4 0x900F010 EQ PUSH2 0xC9 JUMPI DUP1 PUSH4 0x6E9960C3 EQ PUSH2 0xF2 JUMPI DUP1 PUSH4 0x7A34C821 EQ PUSH2 0x11D JUMPI DUP1 PUSH4 0x9234C1E1 EQ PUSH2 0x148 JUMPI DUP1 PUSH4 0x9AD5C59A EQ PUSH2 0x171 JUMPI DUP1 PUSH4 0xAAF10F42 EQ PUSH2 0x19C JUMPI PUSH2 0x60 JUMP JUMPDEST CALLDATASIZE PUSH2 0x60 JUMPI STOP JUMPDEST PUSH2 0xC7 PUSH2 0x9E PUSH1 0x1 PUSH32 0xAFE5C93BC3806F697DE5A3E1938D776E26791ADCA416F7DE5D26C6942DAA65F6 PUSH1 0x0 SHR PUSH2 0x96 SWAP2 SWAP1 PUSH2 0x7EE JUMP JUMPDEST PUSH1 0x0 SHL PUSH2 0x1C7 JUMP JUMPDEST PUSH1 0x0 ADD PUSH1 0x0 SWAP1 SLOAD SWAP1 PUSH2 0x100 EXP SWAP1 DIV PUSH20 0xFFFFFFFFFFFFFFFFFFFFFFFFFFFFFFFFFFFFFFFF AND PUSH2 0x1D1 JUMP JUMPDEST STOP JUMPDEST CALLVALUE DUP1 ISZERO PUSH2 0xD5 JUMPI PUSH1 0x0 DUP1 REVERT JUMPDEST POP PUSH2 0xF0 PUSH1 0x4 DUP1 CALLDATASIZE SUB DUP2 ADD SWAP1 PUSH2 0xEB SWAP2 SWAP1 PUSH2 0x885 JUMP JUMPDEST PUSH2 0x1F7 JUMP JUMPDEST STOP JUMPDEST CALLVALUE DUP1 ISZERO PUSH2 0xFE JUMPI PUSH1 0x0 DUP1 REVERT JUMPDEST POP PUSH2 0x107 PUSH2 0x40C JUMP JUMPDEST PUSH1 0x40 MLOAD PUSH2 0x114 SWAP2 SWAP1 PUSH2 0x8C1 JUMP JUMPDEST PUSH1 0x40 MLOAD DUP1 SWAP2 SUB SWAP1 RETURN JUMPDEST CALLVALUE DUP1 ISZERO PUSH2 0x129 JUMPI PUSH1 0x0 DUP1 REVERT JUMPDEST POP PUSH2 0x132 PUSH2 0x472 JUMP JUMPDEST PUSH1 0x40 MLOAD PUSH2 0x13F SWAP2 SWAP1 PUSH2 0x8F5 JUMP JUMPDEST PUSH1 0x40 MLOAD DUP1 SWAP2 SUB SWAP1 RETURN JUMPDEST CALLVALUE DUP1 ISZERO PUSH2 0x154 JUMPI PUSH1 0x0 DUP1 REVERT JUMPDEST POP PUSH2 0x16F PUSH1 0x4 DUP1 CALLDATASIZE SUB DUP2 ADD SWAP1 PUSH2 0x16A SWAP2 SWAP1 PUSH2 0x885 JUMP JUMPDEST PUSH2 0x521 JUMP JUMPDEST STOP JUMPDEST CALLVALUE DUP1 ISZERO PUSH2 0x17D JUMPI PUSH1 0x0 DUP1 REVERT JUMPDEST POP PUSH2 0x186 PUSH2 0x67D JUMP JUMPDEST PUSH1 0x40 MLOAD PUSH2 0x193 SWAP2 SWAP1 PUSH2 0x8F5 JUMP JUMPDEST PUSH1 0x40 MLOAD DUP1 SWAP2 SUB SWAP1 RETURN JUMPDEST CALLVALUE DUP1 ISZERO PUSH2 0x1A8 JUMPI PUSH1 0x0 DUP1 REVERT JUMPDEST POP PUSH2 0x1B1 PUSH2 0x72C JUMP JUMPDEST PUSH1 0x40 MLOAD PUSH2 0x1BE SWAP2 SWAP1 PUSH2 0x8C1 JUMP JUMPDEST PUSH1 0x40 MLOAD DUP1 SWAP2 SUB SWAP1 RETURN JUMPDEST PUSH1 0x0 DUP2 SWAP1 POP SWAP2 SWAP1 POP JUMP JUMPDEST CALLDATASIZE PUSH1 0x0 DUP1 CALLDATACOPY PUSH1 0x0 DUP1 CALLDATASIZE PUSH1 0x0 DUP5 GAS DELEGATECALL RETURNDATASIZE PUSH1 0x0 DUP1 RETURNDATACOPY DUP1 PUSH1 0x0 DUP2 EQ PUSH2 0x1F2 JUMPI RETURNDATASIZE PUSH1 0x0 RETURN JUMPDEST RETURNDATASIZE PUSH1 0x0 REVERT JUMPDEST CALLER PUSH20 0xFFFFFFFFFFFFFFFFFFFFFFFFFFFFFFFFFFFFFFFF AND PUSH2 0x216 PUSH2 0x40C JUMP JUMPDEST PUSH20 0xFFFFFFFFFFFFFFFFFFFFFFFFFFFFFFFFFFFFFFFF AND EQ PUSH2 0x26C JUMPI PUSH1 0x40 MLOAD PUSH32 0x8C379A000000000000000000000000000000000000000000000000000000000 DUP2 MSTORE PUSH1 0x4 ADD PUSH2 0x263 SWAP1 PUSH2 0x96D JUMP JUMPDEST PUSH1 0x40 MLOAD DUP1 SWAP2 SUB SWAP1 REVERT JUMPDEST DUP1 PUSH2 0x276 DUP2 PUSH2 0x792 JUMP JUMPDEST PUSH2 0x2B5 JUMPI PUSH1 0x40 MLOAD PUSH32 0x8C379A000000000000000000000000000000000000000000000000000000000 DUP2 MSTORE PUSH1 0x4 ADD PUSH2 0x2AC SWAP1 PUSH2 0x9FF JUMP JUMPDEST PUSH1 0x40 MLOAD DUP1 SWAP2 SUB SWAP1 REVERT JUMPDEST PUSH1 0x0 PUSH20 0xFFFFFFFFFFFFFFFFFFFFFFFFFFFFFFFFFFFFFFFF AND DUP2 PUSH20 0xFFFFFFFFFFFFFFFFFFFFFFFFFFFFFFFFFFFFFFFF AND SUB PUSH2 0x324 JUMPI PUSH1 0x40 MLOAD PUSH32 0x8C379A000000000000000000000000000000000000000000000000000000000 DUP2 MSTORE PUSH1 0x4 ADD PUSH2 0x31B SWAP1 PUSH2 0xA91 JUMP JUMPDEST PUSH1 0x40 MLOAD DUP1 SWAP2 SUB SWAP1 REVERT JUMPDEST PUSH1 0x0 PUSH2 0x32E PUSH2 0x72C JUMP JUMPDEST SWAP1 POP DUP3 PUSH2 0x36C PUSH1 0x1 PUSH32 0xAFE5C93BC3806F697DE5A3E1938D776E26791ADCA416F7DE5D26C6942DAA65F6 PUSH1 0x0 SHR PUSH2 0x364 SWAP2 SWAP1 PUSH2 0x7EE JUMP JUMPDEST PUSH1 0x0 SHL PUSH2 0x1C7 JUMP JUMPDEST PUSH1 0x0 ADD PUSH1 0x0 PUSH2 0x100 EXP DUP2 SLOAD DUP2 PUSH20 0xFFFFFFFFFFFFFFFFFFFFFFFFFFFFFFFFFFFFFFFF MUL NOT AND SWAP1 DUP4 PUSH20 0xFFFFFFFFFFFFFFFFFFFFFFFFFFFFFFFFFFFFFFFF AND MUL OR SWAP1 SSTORE POP DUP3 PUSH20 0xFFFFFFFFFFFFFFFFFFFFFFFFFFFFFFFFFFFFFFFF AND DUP2 PUSH20 0xFFFFFFFFFFFFFFFFFFFFFFFFFFFFFFFFFFFFFFFF AND PUSH32 0x5D611F318680D00598BB735D61BACF0C514C6B50E1E5AD30040A4DF2B12791C7 PUSH1 0x40 MLOAD PUSH1 0x40 MLOAD DUP1 SWAP2 SUB SWAP1 LOG3 POP POP POP JUMP JUMPDEST PUSH1 0x0 PUSH2 0x449 PUSH1 0x1 PUSH32 0x52E63F25879FA6321DD109B52BA158AF8D6C19562106853D85B7600BEA7A5D58 PUSH1 0x0 SHR PUSH2 0x441 SWAP2 SWAP1 PUSH2 0x7EE JUMP JUMPDEST PUSH1 0x0 SHL PUSH2 0x1C7 JUMP JUMPDEST PUSH1 0x0 ADD PUSH1 0x0 SWAP1 SLOAD SWAP1 PUSH2 0x100 EXP SWAP1 DIV PUSH20 0xFFFFFFFFFFFFFFFFFFFFFFFFFFFFFFFFFFFFFFFF AND SWAP1 POP SWAP1 JUMP JUMPDEST PUSH1 0x0 CALLER PUSH20 0xFFFFFFFFFFFFFFFFFFFFFFFFFFFFFFFFFFFFFFFF AND PUSH2 0x493 PUSH2 0x40C JUMP JUMPDEST PUSH20 0xFFFFFFFFFFFFFFFFFFFFFFFFFFFFFFFFFFFFFFFF AND EQ PUSH2 0x4E9 JUMPI PUSH1 0x40 MLOAD PUSH32 0x8C379A000000000000000000000000000000000000000000000000000000000 DUP2 MSTORE PUSH1 0x4 ADD PUSH2 0x4E0 SWAP1 PUSH2 0x96D JUMP JUMPDEST PUSH1 0x40 MLOAD DUP1 SWAP2 SUB SWAP1 REVERT JUMPDEST PUSH1 0x1 PUSH32 0xAFE5C93BC3806F697DE5A3E1938D776E26791ADCA416F7DE5D26C6942DAA65F6 PUSH1 0x0 SHR PUSH2 0x519 SWAP2 SWAP1 PUSH2 0x7EE JUMP JUMPDEST PUSH1 0x0 SHL SWAP1 POP SWAP1 JUMP JUMPDEST CALLER PUSH20 0xFFFFFFFFFFFFFFFFFFFFFFFFFFFFFFFFFFFFFFFF AND PUSH2 0x540 PUSH2 0x40C JUMP JUMPDEST PUSH20 0xFFFFFFFFFFFFFFFFFFFFFFFFFFFFFFFFFFFFFFFF AND EQ PUSH2 0x596 JUMPI PUSH1 0x40 MLOAD PUSH32 0x8C379A000000000000000000000000000000000000000000000000000000000 DUP2 MSTORE PUSH1 0x4 ADD PUSH2 0x58D SWAP1 PUSH2 0x96D JUMP JUMPDEST PUSH1 0x40 MLOAD DUP1 SWAP2 SUB SWAP1 REVERT JUMPDEST PUSH1 0x0 PUSH2 0x5A0 PUSH2 0x40C JUMP JUMPDEST SWAP1 POP DUP2 PUSH2 0x5DE PUSH1 0x1 PUSH32 0x52E63F25879FA6321DD109B52BA158AF8D6C19562106853D85B7600BEA7A5D58 PUSH1 0x0 SHR PUSH2 0x5D6 SWAP2 SWAP1 PUSH2 0x7EE JUMP JUMPDEST PUSH1 0x0 SHL PUSH2 0x1C7 JUMP JUMPDEST PUSH1 0x0 ADD PUSH1 0x0 PUSH2 0x100 EXP DUP2 SLOAD DUP2 PUSH20 0xFFFFFFFFFFFFFFFFFFFFFFFFFFFFFFFFFFFFFFFF MUL NOT AND SWAP1 DUP4 PUSH20 0xFFFFFFFFFFFFFFFFFFFFFFFFFFFFFFFFFFFFFFFF AND MUL OR SWAP1 SSTORE POP DUP2 PUSH20 0xFFFFFFFFFFFFFFFFFFFFFFFFFFFFFFFFFFFFFFFF AND DUP2 PUSH20 0xFFFFFFFFFFFFFFFFFFFFFFFFFFFFFFFFFFFFFFFF AND PUSH32 0xF8CCB027DFCD135E000E9D45E6CC2D662578A8825D4C45B5E32E0ADF67E79EC6 PUSH1 0x40 MLOAD PUSH1 0x40 MLOAD DUP1 SWAP2 SUB SWAP1 LOG3 POP POP JUMP JUMPDEST PUSH1 0x0 CALLER PUSH20 0xFFFFFFFFFFFFFFFFFFFFFFFFFFFFFFFFFFFFFFFF AND PUSH2 0x69E PUSH2 0x40C JUMP JUMPDEST PUSH20 0xFFFFFFFFFFFFFFFFFFFFFFFFFFFFFFFFFFFFFFFF AND EQ PUSH2 0x6F4 JUMPI PUSH1 0x40 MLOAD PUSH32 0x8C379A000000000000000000000000000000000000000000000000000000000 DUP2 MSTORE PUSH1 0x4 ADD PUSH2 0x6EB SWAP1 PUSH2 0x96D JUMP JUMPDEST PUSH1 0x40 MLOAD DUP1 SWAP2 SUB SWAP1 REVERT JUMPDEST PUSH1 0x1 PUSH32 0x52E63F25879FA6321DD109B52BA158AF8D6C19562106853D85B7600BEA7A5D58 PUSH1 0x0 SHR PUSH2 0x724 SWAP2 SWAP1 PUSH2 0x7EE JUMP JUMPDEST PUSH1 0x0 SHL SWAP1 POP SWAP1 JUMP JUMPDEST PUSH1 0x0 PUSH2 0x769 PUSH1 0x1 PUSH32 0xAFE5C93BC3806F697DE5A3E1938D776E26791ADCA416F7DE5D26C6942DAA65F6 PUSH1 0x0 SHR PUSH2 0x761 SWAP2 SWAP1 PUSH2 0x7EE JUMP JUMPDEST PUSH1 0x0 SHL PUSH2 0x1C7 JUMP JUMPDEST PUSH1 0x0 ADD PUSH1 0x0 SWAP1 SLOAD SWAP1 PUSH2 0x100 EXP SWAP1 DIV PUSH20 0xFFFFFFFFFFFFFFFFFFFFFFFFFFFFFFFFFFFFFFFF AND SWAP1 POP SWAP1 JUMP JUMPDEST PUSH1 0x0 DUP1 DUP3 PUSH20 0xFFFFFFFFFFFFFFFFFFFFFFFFFFFFFFFFFFFFFFFF AND EXTCODESIZE GT SWAP1 POP SWAP2 SWAP1 POP JUMP JUMPDEST PUSH1 0x0 DUP2 SWAP1 POP SWAP2 SWAP1 POP JUMP JUMPDEST PUSH32 0x4E487B7100000000000000000000000000000000000000000000000000000000 PUSH1 0x0 MSTORE PUSH1 0x11 PUSH1 0x4 MSTORE PUSH1 0x24 PUSH1 0x0 REVERT JUMPDEST PUSH1 0x0 PUSH2 0x7F9 DUP3 PUSH2 0x7B5 JUMP JUMPDEST SWAP2 POP PUSH2 0x804 DUP4 PUSH2 0x7B5 JUMP JUMPDEST SWAP3 POP DUP3 DUP3 SUB SWAP1 POP DUP2 DUP2 GT ISZERO PUSH2 0x81C JUMPI PUSH2 0x81B PUSH2 0x7BF JUMP JUMPDEST JUMPDEST SWAP3 SWAP2 POP POP JUMP JUMPDEST PUSH1 0x0 DUP1 REVERT JUMPDEST PUSH1 0x0 PUSH20 0xFFFFFFFFFFFFFFFFFFFFFFFFFFFFFFFFFFFFFFFF DUP3 AND SWAP1 POP SWAP2 SWAP1 POP JUMP JUMPDEST PUSH1 0x0 PUSH2 0x852 DUP3 PUSH2 0x827 JUMP JUMPDEST SWAP1 POP SWAP2 SWAP1 POP JUMP JUMPDEST PUSH2 0x862 DUP2 PUSH2 0x847 JUMP JUMPDEST DUP2 EQ PUSH2 0x86D JUMPI PUSH1 0x0 DUP1 REVERT JUMPDEST POP JUMP JUMPDEST PUSH1 0x0 DUP2 CALLDATALOAD SWAP1 POP PUSH2 0x87F DUP2 PUSH2 0x859 JUMP JUMPDEST SWAP3 SWAP2 POP POP JUMP JUMPDEST PUSH1 0x0 PUSH1 0x20 DUP3 DUP5 SUB SLT ISZERO PUSH2 0x89B JUMPI PUSH2 0x89A PUSH2 0x822 JUMP JUMPDEST JUMPDEST PUSH1 0x0 PUSH2 0x8A9 DUP5 DUP3 DUP6 ADD PUSH2 0x870 JUMP JUMPDEST SWAP2 POP POP SWAP3 SWAP2 POP POP JUMP JUMPDEST PUSH2 0x8BB DUP2 PUSH2 0x847 JUMP JUMPDEST DUP3 MSTORE POP POP JUMP JUMPDEST PUSH1 0x0 PUSH1 0x20 DUP3 ADD SWAP1 POP PUSH2 0x8D6 PUSH1 0x0 DUP4 ADD DUP5 PUSH2 0x8B2 JUMP JUMPDEST SWAP3 SWAP2 POP POP JUMP JUMPDEST PUSH1 0x0 DUP2 SWAP1 POP SWAP2 SWAP1 POP JUMP JUMPDEST PUSH2 0x8EF DUP2 PUSH2 0x8DC JUMP JUMPDEST DUP3 MSTORE POP POP JUMP JUMPDEST PUSH1 0x0 PUSH1 0x20 DUP3 ADD SWAP1 POP PUSH2 0x90A PUSH1 0x0 DUP4 ADD DUP5 PUSH2 0x8E6 JUMP JUMPDEST SWAP3 SWAP2 POP POP JUMP JUMPDEST PUSH1 0x0 DUP3 DUP3 MSTORE PUSH1 0x20 DUP3 ADD SWAP1 POP SWAP3 SWAP2 POP POP JUMP JUMPDEST PUSH32 0x43616C6C6572206973206E6F74207468652061646D696E000000000000000000 PUSH1 0x0 DUP3 ADD MSTORE POP JUMP JUMPDEST PUSH1 0x0 PUSH2 0x957 PUSH1 0x17 DUP4 PUSH2 0x910 JUMP JUMPDEST SWAP2 POP PUSH2 0x962 DUP3 PUSH2 0x921 JUMP JUMPDEST PUSH1 0x20 DUP3 ADD SWAP1 POP SWAP2 SWAP1 POP JUMP JUMPDEST PUSH1 0x0 PUSH1 0x20 DUP3 ADD SWAP1 POP DUP2 DUP2 SUB PUSH1 0x0 DUP4 ADD MSTORE PUSH2 0x986 DUP2 PUSH2 0x94A JUMP JUMPDEST SWAP1 POP SWAP2 SWAP1 POP JUMP JUMPDEST PUSH32 0x5F6E6577496D706C656D656E746174696F6E206973206E6F74206120636F6E74 PUSH1 0x0 DUP3 ADD MSTORE PUSH32 0x7261637420616464726573730000000000000000000000000000000000000000 PUSH1 0x20 DUP3 ADD MSTORE POP JUMP JUMPDEST PUSH1 0x0 PUSH2 0x9E9 PUSH1 0x2C DUP4 PUSH2 0x910 JUMP JUMPDEST SWAP2 POP PUSH2 0x9F4 DUP3 PUSH2 0x98D JUMP JUMPDEST PUSH1 0x40 DUP3 ADD SWAP1 POP SWAP2 SWAP1 POP JUMP JUMPDEST PUSH1 0x0 PUSH1 0x20 DUP3 ADD SWAP1 POP DUP2 DUP2 SUB PUSH1 0x0 DUP4 ADD MSTORE PUSH2 0xA18 DUP2 PUSH2 0x9DC JUMP JUMPDEST SWAP1 POP SWAP2 SWAP1 POP JUMP JUMPDEST PUSH32 0x5F6E6577496D706C656D656E746174696F6E2063616E27742062652061207A65 PUSH1 0x0 DUP3 ADD MSTORE PUSH32 0x726F206164647265737300000000000000000000000000000000000000000000 PUSH1 0x20 DUP3 ADD MSTORE POP JUMP JUMPDEST PUSH1 0x0 PUSH2 0xA7B PUSH1 0x2A DUP4 PUSH2 0x910 JUMP JUMPDEST SWAP2 POP PUSH2 0xA86 DUP3 PUSH2 0xA1F JUMP JUMPDEST PUSH1 0x40 DUP3 ADD SWAP1 POP SWAP2 SWAP1 POP JUMP JUMPDEST PUSH1 0x0 PUSH1 0x20 DUP3 ADD SWAP1 POP DUP2 DUP2 SUB PUSH1 0x0 DUP4 ADD MSTORE PUSH2 0xAAA DUP2 PUSH2 0xA6E JUMP JUMPDEST SWAP1 POP SWAP2 SWAP1 POP JUMP INVALID LOG2 PUSH5 0x6970667358 0x22 SLT KECCAK256 0xBD 0xFC 0x2B 0xFC CALLDATACOPY KECCAK256 0xC8 0x21 0xCA 0xE9 0xB0 PUSH16 0x935B9ABAF027A235F42702DAE311C7F0 JUMPI BLOBBASEFEE 0xC0 PUSH22 0x64736F6C634300081B00330000000000000000000000 "},"methodIdentifiers":{"adminTransfer(address)":"9234c1e1","getAdmin()":"6e9960c3","getAdminSlot()":"9ad5c59a","getImplementation()":"aaf10f42","getImplementationSlot()":"7a34c821","upgrade(address)":"0900f010"}}}}}